{
  "_format": "hh-sol-artifact-1",
  "contractName": "RPSGame",
  "sourceName": "contracts/RPS.sol",
  "abi": [
    {
      "inputs": [],
      "name": "check_winner",
      "outputs": [
        {
          "internalType": "address",
          "name": "",
          "type": "address"
        }
      ],
      "stateMutability": "view",
      "type": "function"
    },
    {
      "inputs": [
        {
          "internalType": "enum RPSGame.Choice",
          "name": "_choice",
          "type": "uint8"
        }
      ],
      "name": "hash_choice",
      "outputs": [
        {
          "internalType": "bytes32",
          "name": "",
          "type": "bytes32"
        }
      ],
      "stateMutability": "view",
      "type": "function"
    },
    {
      "inputs": [],
      "name": "is_ended",
      "outputs": [
        {
          "internalType": "bool",
          "name": "",
          "type": "bool"
        }
      ],
      "stateMutability": "view",
      "type": "function"
    },
    {
      "inputs": [
        {
          "internalType": "bytes32",
          "name": "_hash_choice",
          "type": "bytes32"
        }
      ],
      "name": "play",
      "outputs": [],
      "stateMutability": "payable",
      "type": "function"
    },
    {
      "inputs": [
        {
          "internalType": "uint256",
          "name": "",
          "type": "uint256"
        }
      ],
      "name": "players",
      "outputs": [
        {
          "internalType": "address payable",
          "name": "player",
          "type": "address"
        },
        {
          "internalType": "bytes32",
          "name": "choice",
          "type": "bytes32"
        }
      ],
      "stateMutability": "view",
      "type": "function"
    },
    {
      "inputs": [],
      "name": "secret",
      "outputs": [
        {
          "internalType": "uint256",
          "name": "",
          "type": "uint256"
        }
      ],
      "stateMutability": "view",
      "type": "function"
    }
  ],
  "bytecode": "0x6080604052620000146200002b60201b60201c565b6001553480156200002457600080fd5b5062000158565b6000444233604051602001620000449392919062000115565b6040516020818303038152906040528051906020012060001c905090565b6000819050919050565b6000819050919050565b6200008b620000858262000062565b6200006c565b82525050565b600073ffffffffffffffffffffffffffffffffffffffff82169050919050565b6000620000be8262000091565b9050919050565b60008160601b9050919050565b6000620000df82620000c5565b9050919050565b6000620000f382620000d2565b9050919050565b6200010f6200010982620000b1565b620000e6565b82525050565b600062000123828662000076565b60208201915062000135828562000076565b602082019150620001478284620000fa565b601482019150819050949350505050565b610fe980620001686000396000f3fe6080604052600436106100555760003560e01c80632452cd301461005a578063c7a1865b14610085578063d1efd30d146100a1578063e6cfb3d4146100cc578063f174366e14610109578063f71d96cb14610134575b600080fd5b34801561006657600080fd5b5061006f610172565b60405161007c919061096f565b60405180910390f35b61009f600480360381019061009a91906109c5565b610183565b005b3480156100ad57600080fd5b506100b6610452565b6040516100c39190610a0b565b60405180910390f35b3480156100d857600080fd5b506100f360048036038101906100ee9190610a4b565b610458565b6040516101009190610a87565b60405180910390f35b34801561011557600080fd5b5061011e61048c565b60405161012b9190610ae3565b60405180910390f35b34801561014057600080fd5b5061015b60048036038101906101569190610b2a565b610696565b604051610169929190610b78565b60405180910390f35b60008054906101000a900460ff1681565b662386f26fc100003410156101cd576040517f08c379a00000000000000000000000000000000000000000000000000000000081526004016101c490610bfe565b60405180910390fd5b600073ffffffffffffffffffffffffffffffffffffffff1660026000600281106101fa576101f9610c1e565b5b6002020160000160009054906101000a900473ffffffffffffffffffffffffffffffffffffffff1673ffffffffffffffffffffffffffffffffffffffff16036102da5760405180604001604052803373ffffffffffffffffffffffffffffffffffffffff16815260200182815250600260006002811061027d5761027c610c1e565b5b6002020160008201518160000160006101000a81548173ffffffffffffffffffffffffffffffffffffffff021916908373ffffffffffffffffffffffffffffffffffffffff1602179055506020820151816001015590505061044f565b3373ffffffffffffffffffffffffffffffffffffffff16600260006002811061030657610305610c1e565b5b6002020160000160009054906101000a900473ffffffffffffffffffffffffffffffffffffffff1673ffffffffffffffffffffffffffffffffffffffff1603610384576040517f08c379a000000000000000000000000000000000000000000000000000000000815260040161037b90610c99565b60405180910390fd5b60405180604001604052803373ffffffffffffffffffffffffffffffffffffffff1681526020018281525060026001600281106103c4576103c3610c1e565b5b6002020160008201518160000160006101000a81548173ffffffffffffffffffffffffffffffffffffffff021916908373ffffffffffffffffffffffffffffffffffffffff1602179055506020820151816001015590505060016000806101000a81548160ff02191690831515021790555061044661044161048c565b6106e0565b61044e610790565b5b50565b60015481565b60006001548260405160200161046f929190610d78565b604051602081830303815290604052805190602001209050919050565b60008060009054906101000a900460ff166104dc576040517f08c379a00000000000000000000000000000000000000000000000000000000081526004016104d390610df0565b60405180910390fd5b600061050360026000600281106104f6576104f5610c1e565b5b600202016001015461089d565b9050600061052c600260016002811061051f5761051e610c1e565b5b600202016001015461089d565b905080820361054057600092505050610693565b6000821480156105505750600281145b1561059b57600260006002811061056a57610569610c1e565b5b6002020160000160009054906101000a900473ffffffffffffffffffffffffffffffffffffffff1692505050610693565b6001821480156105ab5750600081145b156105f65760026000600281106105c5576105c4610c1e565b5b6002020160000160009054906101000a900473ffffffffffffffffffffffffffffffffffffffff1692505050610693565b6002821480156106065750600181145b156106515760026000600281106106205761061f610c1e565b5b6002020160000160009054906101000a900473ffffffffffffffffffffffffffffffffffffffff1692505050610693565b600260016002811061066657610665610c1e565b5b6002020160000160009054906101000a900473ffffffffffffffffffffffffffffffffffffffff16925050505b90565b600281600281106106a657600080fd5b600202016000915090508060000160009054906101000a900473ffffffffffffffffffffffffffffffffffffffff16908060010154905082565b60008173ffffffffffffffffffffffffffffffffffffffff164760405161070690610e41565b60006040518083038185875af1925050503d8060008114610743576040519150601f19603f3d011682016040523d82523d6000602084013e610748565b606091505b505090508061078c576040517f08c379a000000000000000000000000000000000000000000000000000000000815260040161078390610ea2565b60405180910390fd5b5050565b60008054906101000a900460ff166107dd576040517f08c379a00000000000000000000000000000000000000000000000000000000081526004016107d490610f0e565b60405180910390fd5b60026000600281106107f2576107f1610c1e565b5b60020201600080820160006101000a81549073ffffffffffffffffffffffffffffffffffffffff021916905560018201600090555050600260016002811061083d5761083c610c1e565b5b60020201600080820160006101000a81549073ffffffffffffffffffffffffffffffffffffffff02191690556001820160009055505061087b61091f565b60018190555060008060006101000a81548160ff021916908315150217905550565b60008160015460006040516020016108b6929190610d78565b60405160208183030381529060405280519060200120036108da576000905061091a565b8160015460016040516020016108f1929190610d78565b6040516020818303038152906040528051906020012003610915576001905061091a565b600290505b919050565b600044423360405160200161093693929190610f76565b6040516020818303038152906040528051906020012060001c905090565b60008115159050919050565b61096981610954565b82525050565b60006020820190506109846000830184610960565b92915050565b600080fd5b6000819050919050565b6109a28161098f565b81146109ad57600080fd5b50565b6000813590506109bf81610999565b92915050565b6000602082840312156109db576109da61098a565b5b60006109e9848285016109b0565b91505092915050565b6000819050919050565b610a05816109f2565b82525050565b6000602082019050610a2060008301846109fc565b92915050565b60038110610a3357600080fd5b50565b600081359050610a4581610a26565b92915050565b600060208284031215610a6157610a6061098a565b5b6000610a6f84828501610a36565b91505092915050565b610a818161098f565b82525050565b6000602082019050610a9c6000830184610a78565b92915050565b600073ffffffffffffffffffffffffffffffffffffffff82169050919050565b6000610acd82610aa2565b9050919050565b610add81610ac2565b82525050565b6000602082019050610af86000830184610ad4565b92915050565b610b07816109f2565b8114610b1257600080fd5b50565b600081359050610b2481610afe565b92915050565b600060208284031215610b4057610b3f61098a565b5b6000610b4e84828501610b15565b91505092915050565b6000610b6282610aa2565b9050919050565b610b7281610b57565b82525050565b6000604082019050610b8d6000830185610b69565b610b9a6020830184610a78565b9392505050565b600082825260208201905092915050565b7f4d7573742073656e6420302e30312056616c7565000000000000000000000000600082015250565b6000610be8601483610ba1565b9150610bf382610bb2565b602082019050919050565b60006020820190508181036000830152610c1781610bdb565b9050919050565b7f4e487b7100000000000000000000000000000000000000000000000000000000600052603260045260246000fd5b7f416c726561647920706c61796564202100000000000000000000000000000000600082015250565b6000610c83601083610ba1565b9150610c8e82610c4d565b602082019050919050565b60006020820190508181036000830152610cb281610c76565b9050919050565b6000819050919050565b610cd4610ccf826109f2565b610cb9565b82525050565b7f4e487b7100000000000000000000000000000000000000000000000000000000600052602160045260246000fd5b60038110610d1a57610d19610cda565b5b50565b6000819050610d2b82610d09565b919050565b6000610d3b82610d1d565b9050919050565b60008160f81b9050919050565b6000610d5a82610d42565b9050919050565b610d72610d6d82610d30565b610d4f565b82525050565b6000610d848285610cc3565b602082019150610d948284610d61565b6001820191508190509392505050565b7f4e6f742073746172746564207965742021000000000000000000000000000000600082015250565b6000610dda601183610ba1565b9150610de582610da4565b602082019050919050565b60006020820190508181036000830152610e0981610dcd565b9050919050565b600081905092915050565b50565b6000610e2b600083610e10565b9150610e3682610e1b565b600082019050919050565b6000610e4c82610e1e565b9150819050919050565b7f4661696c656420746f2073656e64204574686572000000000000000000000000600082015250565b6000610e8c601483610ba1565b9150610e9782610e56565b602082019050919050565b60006020820190508181036000830152610ebb81610e7f565b9050919050565b7f47616d65206973206e6f7420656e646564210000000000000000000000000000600082015250565b6000610ef8601283610ba1565b9150610f0382610ec2565b602082019050919050565b60006020820190508181036000830152610f2781610eeb565b9050919050565b60008160601b9050919050565b6000610f4682610f2e565b9050919050565b6000610f5882610f3b565b9050919050565b610f70610f6b82610ac2565b610f4d565b82525050565b6000610f828286610cc3565b602082019150610f928285610cc3565b602082019150610fa28284610f5f565b60148201915081905094935050505056fea2646970667358221220fdbf00515fdc41570b8a891c03342fce6072c85c08c1b877f6b9d08cda50fa4764736f6c63430008110033",
  "linkReferences": {},
  "deployedLinkReferences": {}
}